{
  "address": "0xc34C50102317ee7D647e7EbcEacd8cd87a38488e",
  "abi": [
    {
      "anonymous": false,
      "inputs": [
        {
          "indexed": false,
          "internalType": "address",
          "name": "previousAdmin",
          "type": "address"
        },
        {
          "indexed": false,
          "internalType": "address",
          "name": "newAdmin",
          "type": "address"
        }
      ],
      "name": "AdminChanged",
      "type": "event"
    },
    {
      "anonymous": false,
      "inputs": [
        {
          "indexed": true,
          "internalType": "address",
          "name": "beacon",
          "type": "address"
        }
      ],
      "name": "BeaconUpgraded",
      "type": "event"
    },
    {
      "anonymous": false,
      "inputs": [
        {
          "indexed": false,
          "internalType": "address",
          "name": "user",
          "type": "address"
        },
        {
          "indexed": false,
          "internalType": "uint256",
          "name": "gems",
          "type": "uint256"
        },
        {
          "indexed": false,
          "internalType": "uint256",
          "name": "streak",
          "type": "uint256"
        }
      ],
      "name": "GemsCollected",
      "type": "event"
    },
    {
      "anonymous": false,
      "inputs": [
        {
          "indexed": true,
          "internalType": "bytes32",
          "name": "role",
          "type": "bytes32"
        },
        {
          "indexed": true,
          "internalType": "bytes32",
          "name": "previousAdminRole",
          "type": "bytes32"
        },
        {
          "indexed": true,
          "internalType": "bytes32",
          "name": "newAdminRole",
          "type": "bytes32"
        }
      ],
      "name": "RoleAdminChanged",
      "type": "event"
    },
    {
      "anonymous": false,
      "inputs": [
        {
          "indexed": true,
          "internalType": "bytes32",
          "name": "role",
          "type": "bytes32"
        },
        {
          "indexed": true,
          "internalType": "address",
          "name": "account",
          "type": "address"
        },
        {
          "indexed": true,
          "internalType": "address",
          "name": "sender",
          "type": "address"
        }
      ],
      "name": "RoleGranted",
      "type": "event"
    },
    {
      "anonymous": false,
      "inputs": [
        {
          "indexed": true,
          "internalType": "bytes32",
          "name": "role",
          "type": "bytes32"
        },
        {
          "indexed": true,
          "internalType": "address",
          "name": "account",
          "type": "address"
        },
        {
          "indexed": true,
          "internalType": "address",
          "name": "sender",
          "type": "address"
        }
      ],
      "name": "RoleRevoked",
      "type": "event"
    },
    {
      "anonymous": false,
      "inputs": [
        {
          "indexed": true,
          "internalType": "address",
          "name": "implementation",
          "type": "address"
        }
      ],
      "name": "Upgraded",
      "type": "event"
    },
    {
      "inputs": [],
      "name": "ADMIN_ROLE",
      "outputs": [
        {
          "internalType": "bytes32",
          "name": "",
          "type": "bytes32"
        }
      ],
      "stateMutability": "view",
      "type": "function"
    },
    {
      "inputs": [],
      "name": "DEFAULT_ADMIN_ROLE",
      "outputs": [
        {
          "internalType": "bytes32",
          "name": "",
          "type": "bytes32"
        }
      ],
      "stateMutability": "view",
      "type": "function"
    },
    {
      "inputs": [],
      "name": "GEM_ROLE",
      "outputs": [
        {
          "internalType": "bytes32",
          "name": "",
          "type": "bytes32"
        }
      ],
      "stateMutability": "view",
      "type": "function"
    },
    {
      "inputs": [],
      "name": "UPGRADER_ROLE",
      "outputs": [
        {
          "internalType": "bytes32",
          "name": "",
          "type": "bytes32"
        }
      ],
      "stateMutability": "view",
      "type": "function"
    },
    {
      "inputs": [
        {
          "internalType": "address",
          "name": "account",
          "type": "address"
        }
      ],
      "name": "balanceOf",
      "outputs": [
        {
          "internalType": "uint256",
          "name": "",
          "type": "uint256"
        }
      ],
      "stateMutability": "view",
      "type": "function"
    },
    {
      "inputs": [
        {
          "internalType": "address",
          "name": "",
          "type": "address"
        }
      ],
      "name": "gems",
      "outputs": [
        {
          "internalType": "uint256",
          "name": "",
          "type": "uint256"
        }
      ],
      "stateMutability": "view",
      "type": "function"
    },
    {
      "inputs": [
        {
          "internalType": "bytes32",
          "name": "role",
          "type": "bytes32"
        }
      ],
      "name": "getRoleAdmin",
      "outputs": [
        {
          "internalType": "bytes32",
          "name": "",
          "type": "bytes32"
        }
      ],
      "stateMutability": "view",
      "type": "function"
    },
    {
      "inputs": [
        {
          "internalType": "address",
          "name": "user",
          "type": "address"
        }
      ],
      "name": "gm",
      "outputs": [],
      "stateMutability": "nonpayable",
      "type": "function"
    },
    {
      "inputs": [
        {
          "internalType": "bytes32",
          "name": "role",
          "type": "bytes32"
        },
        {
          "internalType": "address",
          "name": "account",
          "type": "address"
        }
      ],
      "name": "grantRole",
      "outputs": [],
      "stateMutability": "nonpayable",
      "type": "function"
    },
    {
      "inputs": [
        {
          "internalType": "bytes32",
          "name": "role",
          "type": "bytes32"
        },
        {
          "internalType": "address",
          "name": "account",
          "type": "address"
        }
      ],
      "name": "hasRole",
      "outputs": [
        {
          "internalType": "bool",
          "name": "",
          "type": "bool"
        }
      ],
      "stateMutability": "view",
      "type": "function"
    },
    {
      "inputs": [
        {
          "internalType": "address",
          "name": "_admin",
          "type": "address"
        },
        {
          "internalType": "address",
          "name": "_longShort",
          "type": "address"
        },
        {
          "internalType": "address",
          "name": "_staker",
          "type": "address"
        }
      ],
      "name": "initialize",
      "outputs": [],
      "stateMutability": "nonpayable",
      "type": "function"
    },
    {
      "inputs": [
        {
          "internalType": "address",
          "name": "",
          "type": "address"
        }
      ],
      "name": "lastAction",
      "outputs": [
        {
          "internalType": "uint256",
          "name": "",
          "type": "uint256"
        }
      ],
      "stateMutability": "view",
      "type": "function"
    },
    {
      "inputs": [
        {
          "internalType": "bytes32",
          "name": "role",
          "type": "bytes32"
        },
        {
          "internalType": "address",
          "name": "account",
          "type": "address"
        }
      ],
      "name": "renounceRole",
      "outputs": [],
      "stateMutability": "nonpayable",
      "type": "function"
    },
    {
      "inputs": [
        {
          "internalType": "bytes32",
          "name": "role",
          "type": "bytes32"
        },
        {
          "internalType": "address",
          "name": "account",
          "type": "address"
        }
      ],
      "name": "revokeRole",
      "outputs": [],
      "stateMutability": "nonpayable",
      "type": "function"
    },
    {
      "inputs": [
        {
          "internalType": "address",
          "name": "",
          "type": "address"
        }
      ],
      "name": "streak",
      "outputs": [
        {
          "internalType": "uint256",
          "name": "",
          "type": "uint256"
        }
      ],
      "stateMutability": "view",
      "type": "function"
    },
    {
      "inputs": [
        {
          "internalType": "bytes4",
          "name": "interfaceId",
          "type": "bytes4"
        }
      ],
      "name": "supportsInterface",
      "outputs": [
        {
          "internalType": "bool",
          "name": "",
          "type": "bool"
        }
      ],
      "stateMutability": "view",
      "type": "function"
    },
    {
      "inputs": [
        {
          "internalType": "address",
          "name": "newImplementation",
          "type": "address"
        }
      ],
      "name": "upgradeTo",
      "outputs": [],
      "stateMutability": "nonpayable",
      "type": "function"
    },
    {
      "inputs": [
        {
          "internalType": "address",
          "name": "newImplementation",
          "type": "address"
        },
        {
          "internalType": "bytes",
          "name": "data",
          "type": "bytes"
        }
      ],
      "name": "upgradeToAndCall",
      "outputs": [],
      "stateMutability": "payable",
      "type": "function"
    }
  ],
  "transactionHash": "0x0a57404bbc05f5fde67e23f4951ee4e03e218dabe2f7a0a6292e81cd5d8472e6",
  "args": [],
  "solcInputHash": "58d56642e1c326f9518f81adf0ba5adc",
  "bytecode": "0x60a06040523060805234801561001457600080fd5b50608051611541610045600039600081816104c1015281816105010152818161058901526105c901526115416000f3fe6080604052600436106101095760003560e01c806370a0823111610095578063a217fddf11610064578063a217fddf14610327578063c0c53b8b1461033c578063d547741f1461035c578063f4e5f7061461037c578063f72c0d8b1461039e57600080fd5b806370a082311461027d57806375b238fc146102b357806391d14854146102e757806392d0214c1461030757600080fd5b80633659cfe6116100dc5780633659cfe6146101c35780633809467e146101e35780634f1ef286146102105780636a2a65181461022357806370720d1f1461025057600080fd5b806301ffc9a71461010e578063248a9ca3146101435780632f2ff15d1461018157806336568abe146101a3575b600080fd5b34801561011a57600080fd5b5061012e61012936600461109b565b6103d2565b60405190151581526020015b60405180910390f35b34801561014f57600080fd5b5061017361015e3660046110c5565b60009081526065602052604090206001015490565b60405190815260200161013a565b34801561018d57600080fd5b506101a161019c3660046110fa565b610409565b005b3480156101af57600080fd5b506101a16101be3660046110fa565b610434565b3480156101cf57600080fd5b506101a16101de366004611126565b6104b7565b3480156101ef57600080fd5b506101736101fe366004611126565b60fb6020526000908152604090205481565b6101a161021e366004611157565b61057f565b34801561022f57600080fd5b5061017361023e366004611126565b60fc6020526000908152604090205481565b34801561025c57600080fd5b5061017361026b366004611126565b60fd6020526000908152604090205481565b34801561028957600080fd5b50610173610298366004611126565b6001600160a01b0316600090815260fb602052604090205490565b3480156102bf57600080fd5b506101737fa49807205ce4d355092ef5a8a18f56e8913cf4a201fbe287825b095693c2177581565b3480156102f357600080fd5b5061012e6103023660046110fa565b610634565b34801561031357600080fd5b506101a1610322366004611126565b61065f565b34801561033357600080fd5b50610173600081565b34801561034857600080fd5b506101a1610357366004611219565b6107be565b34801561036857600080fd5b506101a16103773660046110fa565b6107f7565b34801561038857600080fd5b506101736000805160206114c583398151915281565b3480156103aa57600080fd5b506101737f189ab7a9244df0848122154315af71fe140f3db0fe014031783b0946b8c9d2e381565b60006001600160e01b03198216637965db0b60e01b148061040357506301ffc9a760e01b6001600160e01b03198316145b92915050565b600082815260656020526040902060010154610425813361081d565b61042f8383610881565b505050565b6001600160a01b03811633146104a95760405162461bcd60e51b815260206004820152602f60248201527f416363657373436f6e74726f6c3a2063616e206f6e6c792072656e6f756e636560448201526e103937b632b9903337b91039b2b63360891b60648201526084015b60405180910390fd5b6104b38282610907565b5050565b6001600160a01b037f00000000000000000000000000000000000000000000000000000000000000001630036104ff5760405162461bcd60e51b81526004016104a09061125c565b7f00000000000000000000000000000000000000000000000000000000000000006001600160a01b031661053161096e565b6001600160a01b0316146105575760405162461bcd60e51b81526004016104a0906112a8565b6105608161099c565b6040805160008082526020820190925261057c918391906109c7565b50565b6001600160a01b037f00000000000000000000000000000000000000000000000000000000000000001630036105c75760405162461bcd60e51b81526004016104a09061125c565b7f00000000000000000000000000000000000000000000000000000000000000006001600160a01b03166105f961096e565b6001600160a01b03161461061f5760405162461bcd60e51b81526004016104a0906112a8565b6106288261099c565b6104b3828260016109c7565b60009182526065602090815260408084206001600160a01b0393909316845291905290205460ff1690565b6106776000805160206114c583398151915233610634565b1561057c576001600160a01b038116600090815260fd602052604090205442620151806106a4838361130a565b1061042f576001600160a01b038316600090815260fb602052604081208054680d8d726b7177a8000092906106da908490611321565b909155506106ee9050620151806002611339565b6106f8838361130a565b1015610732576001600160a01b038316600090815260fc60205260408120805460019290610727908490611321565b9091555061074f9050565b6001600160a01b038316600090815260fc60205260409020600190555b6001600160a01b038316600081815260fd6020908152604080832085905560fb82528083205460fc8352928190205481519485529184019290925282820152517f6f4864c954777b623ffcb477ee1875e76a6345a6ca1588bcc781048e8674e5ee9181900360600190a1505050565b6107c783610b12565b6107df6000805160206114c583398151915283610be4565b61042f6000805160206114c583398151915282610be4565b600082815260656020526040902060010154610813813361081d565b61042f8383610907565b6108278282610634565b6104b35761083f816001600160a01b03166014610bee565b61084a836020610bee565b60405160200161085b929190611388565b60408051601f198184030181529082905262461bcd60e51b82526104a0916004016113fd565b61088b8282610634565b6104b35760008281526065602090815260408083206001600160a01b03851684529091529020805460ff191660011790556108c33390565b6001600160a01b0316816001600160a01b0316837f2f8788117e7eff1d82e926ec794901d17c78024a50270940304540a733656f0d60405160405180910390a45050565b6109118282610634565b156104b35760008281526065602090815260408083206001600160a01b0385168085529252808320805460ff1916905551339285917ff6391f5c32d9c69d2a47ea670b442974b53935d1edc7fd64eb21e047a839171b9190a45050565b7f360894a13ba1a3210667c828492db98dca3e2076cc3735a920a3ca505d382bbc546001600160a01b031690565b7f189ab7a9244df0848122154315af71fe140f3db0fe014031783b0946b8c9d2e36104b3813361081d565b60006109d161096e565b90506109dc84610d91565b6000835111806109e95750815b156109fa576109f88484610e36565b505b7f4910fdfa16fed3260ed0e7147f7cc6da11a60208b5b9406d12a635614ffd9143805460ff16610b0b57805460ff191660011781556040516001600160a01b0383166024820152610a7990869060440160408051601f198184030181529190526020810180516001600160e01b0316631b2ce7f360e11b179052610e36565b50805460ff19168155610a8a61096e565b6001600160a01b0316826001600160a01b031614610b025760405162461bcd60e51b815260206004820152602f60248201527f45524331393637557067726164653a207570677261646520627265616b73206660448201526e75727468657220757067726164657360881b60648201526084016104a0565b610b0b85610f21565b5050505050565b600054610100900460ff16610b2d5760005460ff1615610b31565b303b155b610b945760405162461bcd60e51b815260206004820152602e60248201527f496e697469616c697a61626c653a20636f6e747261637420697320616c72656160448201526d191e481a5b9a5d1a585b1a5e995960921b60648201526084016104a0565b600054610100900460ff16158015610bb6576000805461ffff19166101011790555b610bbe610f61565b610bc6610fa2565b610bcf82610fc9565b80156104b3576000805461ff00191690555050565b6104b38282610881565b60606000610bfd836002611339565b610c08906002611321565b67ffffffffffffffff811115610c2057610c20611141565b6040519080825280601f01601f191660200182016040528015610c4a576020820181803683370190505b509050600360fc1b81600081518110610c6557610c65611430565b60200101906001600160f81b031916908160001a905350600f60fb1b81600181518110610c9457610c94611430565b60200101906001600160f81b031916908160001a9053506000610cb8846002611339565b610cc3906001611321565b90505b6001811115610d3b576f181899199a1a9b1b9c1cb0b131b232b360811b85600f1660108110610cf757610cf7611430565b1a60f81b828281518110610d0d57610d0d611430565b60200101906001600160f81b031916908160001a90535060049490941c93610d3481611446565b9050610cc6565b508315610d8a5760405162461bcd60e51b815260206004820181905260248201527f537472696e67733a20686578206c656e67746820696e73756666696369656e7460448201526064016104a0565b9392505050565b803b610df55760405162461bcd60e51b815260206004820152602d60248201527f455243313936373a206e657720696d706c656d656e746174696f6e206973206e60448201526c1bdd08184818dbdb9d1c9858dd609a1b60648201526084016104a0565b7f360894a13ba1a3210667c828492db98dca3e2076cc3735a920a3ca505d382bbc80546001600160a01b0319166001600160a01b0392909216919091179055565b6060823b610e955760405162461bcd60e51b815260206004820152602660248201527f416464726573733a2064656c65676174652063616c6c20746f206e6f6e2d636f6044820152651b9d1c9858dd60d21b60648201526084016104a0565b600080846001600160a01b031684604051610eb0919061145d565b600060405180830381855af49150503d8060008114610eeb576040519150601f19603f3d011682016040523d82523d6000602084013e610ef0565b606091505b5091509150610f1882826040518060600160405280602781526020016114e56027913961103b565b95945050505050565b610f2a81610d91565b6040516001600160a01b038216907fbc7cd75a20ee27fd9adebab32041f755214dbc6bffa90cc0225b39da2e5c2d3b90600090a250565b600054610100900460ff16610f885760405162461bcd60e51b81526004016104a090611479565b610f90611074565b610f98611074565b610fa0611074565b565b600054610100900460ff16610f905760405162461bcd60e51b81526004016104a090611479565b6001600160a01b038116610fdc57600080fd5b610fe7600082610be4565b6110117fa49807205ce4d355092ef5a8a18f56e8913cf4a201fbe287825b095693c2177582610be4565b61057c7f189ab7a9244df0848122154315af71fe140f3db0fe014031783b0946b8c9d2e382610be4565b6060831561104a575081610d8a565b82511561105a5782518084602001fd5b8160405162461bcd60e51b81526004016104a091906113fd565b600054610100900460ff16610fa05760405162461bcd60e51b81526004016104a090611479565b6000602082840312156110ad57600080fd5b81356001600160e01b031981168114610d8a57600080fd5b6000602082840312156110d757600080fd5b5035919050565b80356001600160a01b03811681146110f557600080fd5b919050565b6000806040838503121561110d57600080fd5b8235915061111d602084016110de565b90509250929050565b60006020828403121561113857600080fd5b610d8a826110de565b634e487b7160e01b600052604160045260246000fd5b6000806040838503121561116a57600080fd5b611173836110de565b9150602083013567ffffffffffffffff8082111561119057600080fd5b818501915085601f8301126111a457600080fd5b8135818111156111b6576111b6611141565b604051601f8201601f19908116603f011681019083821181831017156111de576111de611141565b816040528281528860208487010111156111f757600080fd5b8260208601602083013760006020848301015280955050505050509250929050565b60008060006060848603121561122e57600080fd5b611237846110de565b9250611245602085016110de565b9150611253604085016110de565b90509250925092565b6020808252602c908201527f46756e6374696f6e206d7573742062652063616c6c6564207468726f7567682060408201526b19195b1959d85d1958d85b1b60a21b606082015260800190565b6020808252602c908201527f46756e6374696f6e206d7573742062652063616c6c6564207468726f7567682060408201526b6163746976652070726f787960a01b606082015260800190565b634e487b7160e01b600052601160045260246000fd5b60008282101561131c5761131c6112f4565b500390565b60008219821115611334576113346112f4565b500190565b6000816000190483118215151615611353576113536112f4565b500290565b60005b8381101561137357818101518382015260200161135b565b83811115611382576000848401525b50505050565b7f416363657373436f6e74726f6c3a206163636f756e74200000000000000000008152600083516113c0816017850160208801611358565b7001034b99036b4b9b9b4b733903937b6329607d1b60179184019182015283516113f1816028840160208801611358565b01602801949350505050565b602081526000825180602084015261141c816040850160208701611358565b601f01601f19169190910160400192915050565b634e487b7160e01b600052603260045260246000fd5b600081611455576114556112f4565b506000190190565b6000825161146f818460208701611358565b9190910192915050565b6020808252602b908201527f496e697469616c697a61626c653a20636f6e7472616374206973206e6f74206960408201526a6e697469616c697a696e6760a81b60608201526080019056fefbb0a55d3bd620b175b4b5ed8e54b15ee857894bb1d3baf3b9219271d425d7f9416464726573733a206c6f772d6c6576656c2064656c65676174652063616c6c206661696c6564a2646970667358221220bf69eda7ef459191354d1d71b517c15ff9fb4207ff3ad7f5f0147cd6fc865ef664736f6c634300080d0033",
  "devdoc": {
    "kind": "dev",
    "methods": {
      "getRoleAdmin(bytes32)": {
        "details": "Returns the admin role that controls `role`. See {grantRole} and {revokeRole}. To change a role's admin, use {_setRoleAdmin}."
      },
      "grantRole(bytes32,address)": {
        "details": "Grants `role` to `account`. If `account` had not been already granted `role`, emits a {RoleGranted} event. Requirements: - the caller must have ``role``'s admin role."
      },
      "hasRole(bytes32,address)": {
        "details": "Returns `true` if `account` has been granted `role`."
      },
      "renounceRole(bytes32,address)": {
        "details": "Revokes `role` from the calling account. Roles are often managed via {grantRole} and {revokeRole}: this function's purpose is to provide a mechanism for accounts to lose their privileges if they are compromised (such as when a trusted device is misplaced). If the calling account had been revoked `role`, emits a {RoleRevoked} event. Requirements: - the caller must be `account`."
      },
      "revokeRole(bytes32,address)": {
        "details": "Revokes `role` from `account`. If `account` had been granted `role`, emits a {RoleRevoked} event. Requirements: - the caller must have ``role``'s admin role."
      },
      "supportsInterface(bytes4)": {
        "details": "See {IERC165-supportsInterface}."
      },
      "upgradeTo(address)": {
        "details": "Upgrade the implementation of the proxy to `newImplementation`. Calls {_authorizeUpgrade}. Emits an {Upgraded} event."
      },
      "upgradeToAndCall(address,bytes)": {
        "details": "Upgrade the implementation of the proxy to `newImplementation`, and subsequently execute the function call encoded in `data`. Calls {_authorizeUpgrade}. Emits an {Upgraded} event."
      }
    },
    "title": "GEMS ",
    "version": 1
  },
  "userdoc": {
    "kind": "user",
    "methods": {},
    "version": 1
  },
  "storageLayout": {
    "storage": [
      {
        "astId": 2922,
        "contract": "contracts/GEMS.sol:GEMS",
        "label": "_initialized",
        "offset": 0,
        "slot": "0",
        "type": "t_bool"
      },
      {
        "astId": 2925,
        "contract": "contracts/GEMS.sol:GEMS",
        "label": "_initializing",
        "offset": 1,
        "slot": "0",
        "type": "t_bool"
      },
      {
        "astId": 7221,
        "contract": "contracts/GEMS.sol:GEMS",
        "label": "__gap",
        "offset": 0,
        "slot": "1",
        "type": "t_array(t_uint256)50_storage"
      },
      {
        "astId": 8143,
        "contract": "contracts/GEMS.sol:GEMS",
        "label": "__gap",
        "offset": 0,
        "slot": "51",
        "type": "t_array(t_uint256)50_storage"
      },
      {
        "astId": 2121,
        "contract": "contracts/GEMS.sol:GEMS",
        "label": "_roles",
        "offset": 0,
        "slot": "101",
        "type": "t_mapping(t_bytes32,t_struct(RoleData)2116_storage)"
      },
      {
        "astId": 2408,
        "contract": "contracts/GEMS.sol:GEMS",
        "label": "__gap",
        "offset": 0,
        "slot": "102",
        "type": "t_array(t_uint256)49_storage"
      },
      {
        "astId": 2904,
        "contract": "contracts/GEMS.sol:GEMS",
        "label": "__gap",
        "offset": 0,
        "slot": "151",
        "type": "t_array(t_uint256)50_storage"
      },
      {
        "astId": 3099,
        "contract": "contracts/GEMS.sol:GEMS",
        "label": "__gap",
        "offset": 0,
        "slot": "201",
        "type": "t_array(t_uint256)50_storage"
      },
      {
        "astId": 14958,
        "contract": "contracts/GEMS.sol:GEMS",
        "label": "gems",
        "offset": 0,
        "slot": "251",
        "type": "t_mapping(t_address,t_uint256)"
      },
      {
        "astId": 14962,
        "contract": "contracts/GEMS.sol:GEMS",
        "label": "streak",
        "offset": 0,
        "slot": "252",
        "type": "t_mapping(t_address,t_uint256)"
      },
      {
        "astId": 14966,
        "contract": "contracts/GEMS.sol:GEMS",
        "label": "lastAction",
        "offset": 0,
        "slot": "253",
        "type": "t_mapping(t_address,t_uint256)"
      }
    ],
    "types": {
      "t_address": {
        "encoding": "inplace",
        "label": "address",
        "numberOfBytes": "20"
      },
      "t_array(t_uint256)49_storage": {
        "base": "t_uint256",
        "encoding": "inplace",
        "label": "uint256[49]",
        "numberOfBytes": "1568"
      },
      "t_array(t_uint256)50_storage": {
        "base": "t_uint256",
        "encoding": "inplace",
        "label": "uint256[50]",
        "numberOfBytes": "1600"
      },
      "t_bool": {
        "encoding": "inplace",
        "label": "bool",
        "numberOfBytes": "1"
      },
      "t_bytes32": {
        "encoding": "inplace",
        "label": "bytes32",
        "numberOfBytes": "32"
      },
      "t_mapping(t_address,t_bool)": {
        "encoding": "mapping",
        "key": "t_address",
        "label": "mapping(address => bool)",
        "numberOfBytes": "32",
        "value": "t_bool"
      },
      "t_mapping(t_address,t_uint256)": {
        "encoding": "mapping",
        "key": "t_address",
        "label": "mapping(address => uint256)",
        "numberOfBytes": "32",
        "value": "t_uint256"
      },
      "t_mapping(t_bytes32,t_struct(RoleData)2116_storage)": {
        "encoding": "mapping",
        "key": "t_bytes32",
        "label": "mapping(bytes32 => struct AccessControlUpgradeable.RoleData)",
        "numberOfBytes": "32",
        "value": "t_struct(RoleData)2116_storage"
      },
      "t_struct(RoleData)2116_storage": {
        "encoding": "inplace",
        "label": "struct AccessControlUpgradeable.RoleData",
        "members": [
          {
            "astId": 2113,
            "contract": "contracts/GEMS.sol:GEMS",
            "label": "members",
            "offset": 0,
            "slot": "0",
            "type": "t_mapping(t_address,t_bool)"
          },
          {
            "astId": 2115,
            "contract": "contracts/GEMS.sol:GEMS",
            "label": "adminRole",
            "offset": 0,
            "slot": "1",
            "type": "t_bytes32"
          }
        ],
        "numberOfBytes": "64"
      },
      "t_uint256": {
        "encoding": "inplace",
        "label": "uint256",
        "numberOfBytes": "32"
      }
    }
  }
}